:020000040800F2
:10000000E806002089010008390C0008CD08000826
:10001000350C0008C5040008851B0008000000001E
:100020000000000000000000000000005917000858
:10003000BB05000800000000F51300084518000883
:10004000A3010008A3010008A3010008A301000800
:10005000A3010008A3010008A3010008A3010008F0
:10006000A3010008A3010008A3010008C9040008B7
:10007000A3010008A3010008A3010008A3010008D0
:10008000A3010008A3010008A3010008A3010008C0
:10009000A3010008A3010008A3010008A3010008B0
:1000A000A3010008A3010008A3010008A3010008A0
:1000B000A3010008A3010008A3010008A301000890
:1000C000A3010008A3010008A3010008A301000880
:1000D000A3010008A3010008A3010008A301000870
:1000E000A3010008A3010008A301000800F002F822
:1000F00000F03AF80AA090E8000C82448344AAF188
:100100000107DA4501D100F02FF8AFF2090EBAE885
:100110000F0013F0010F18BFFB1A43F0010318473B
:100120001848000038480000103A24BF78C878C149
:10013000FAD8520724BF30C830C144BF04680C60ED
:10014000704700000023002400250026103A28BF35
:1001500078C1FBD8520728BF30C148BF0B60704739
:100160001FB51FBD10B510BD00F06EF81146FFF7AA
:10017000F7FF01F035FF00F0A0F803B4FFF7F2FF3E
:1001800003BC01F0C1FD0000094880470948004751
:10019000FEE7FEE7FEE7FEE7FEE7FEE7FEE7FEE737
:1001A000FEE7FEE704480549054A064B7047000094
:1001B0005D180008ED000008E8000020E8060020B7
:1001C000E8020020E8020020704700000FB4044954
:1001D00010B503AA029800F009F810BC5DF814FBF2
:1001E0001C0000207047704770477047074B70B580
:1001F0000D467B4400F011F80446284600F020F834
:1002000010B14FF0FF3070BD204670BD531D00008F
:1002100001694A1C02610878704700B58FB0CDE9CA
:1002200001310021059105497944CDE903101146BA
:10023000684600F02EF80FB000BD0000E5FFFFFF9C
:10024000007B00F080007047754600F03FF8AE4636
:1002500005006946534620F00700854618B020B5D2
:10026000FFF7A0FFBDE820404FF000064FF0000769
:100270004FF000084FF0000B21F00701AC46ACE84E
:10028000C009ACE8C009ACE8C009ACE8C0098D46BB
:1002900070472DE9F04106460024D6E90170F56863
:1002A0008046304603E04146B847641C3046A847C4
:1002B0000028F8D12046BDE8F08110B50446AFF320
:1002C00000802046BDE81040FFF757BF0048704748
:1002D0008800002021B1826842F00102826003E0C0
:1002E000826822F001028260704710B501F06CFD57
:1002F00001F00CFD00F00CF810BD21B1826842F451
:100300008072826003E0826822F4807282607047AB
:1003100000B58BB00121084601F07AF80520039062
:10032000002002900A90124801904FF480600790DC
:1003300080200590202008900E480090801506909F
:10034000002004904FF48050099069460A4800F05C
:1003500016F9022000F0DAF801220221064800F026
:1003600005F90121044800F0DFF80BB000BD0000E2
:100370005C0000204C2401400800024021B182684A
:1003800042F48012826003E0826822F4801282606C
:100390007047014600208A6802F004020AB1012079
:1003A00000E000207047000030B502460020002326
:1003B00050680F4C20400D790C6844EA0524204316
:1003C000506090680B4C2040D1E902542C434D7989
:1003D00044EA450420439060D06A20F470000C7C0D
:1003E000641EE4B2234340EA0350D06230BD0000F3
:1003F000FFFEF0FFFDF7F1FFF0B504460D460020CB
:100400000021092D11DDE068A5F10A0606EB46077B
:10041000072606FA07F18843A5F10A0606EB460609
:1004200003FA06F10843E0600CE0206905EB45079C
:10043000072606FA07F1884305EB450603FA06F19D
:1004400008432061072A0FDA606B561E06EB860709
:100450001F2606FA07F18843561E06EB860605FAA4
:1004600006F10843606322E00D2A0FDA206BD61FE5
:1004700006EB86071F2606FA07F18843D61F06EB10
:10048000860605FA06F10843206310E0E06AA2F14F
:100490000D0606EB86071F2606FA07F18843A2F130
:1004A0000D0606EB860605FA06F10843E062F0BD8C
:1004B000816841F0080181607047816841F0040162
:1004C0008160704700BFFEE710B50024022000F0F5
:1004D00037F8012815D10B4801F098FC0A4801F0C3
:1004E000CFFC094800F092FC0446202C03D10220E6
:1004F00000F05AFB02E0042000F024FB022000F090
:1005000005F810BD5C0000207100002000F0805153
:1005100011B10349086001E00249486070470000DA
:10052000040402400000024021B1026842F00102CE
:10053000026004E002684FF6FE731A4002607047E2
:1005400001460020002201F0805313B1054B1A68C8
:1005500001E0054B1A6802EA01030BB1012000E03B
:100560000020704700040240000002401AB10368F6
:100570000B43036002E003688B430360704710B5D0
:100580000022026847F6F0739A430C6A8B68234393
:100590000C6923434C6923438C692343CC6923436F
:1005A0004C6A23438C6A23431A430260CB6843603E
:1005B0000B6883604B68C36010BD704738B500247A
:1005C0006D4880786C49497840EA01106B49097898
:1005D000884209D000F0F4FC674880786649497881
:1005E00040EA0110654908706348407830B9022339
:1005F000634A0321184600F023FE09E05E48407874
:10060000012805D102235F4A0321184600F018FE95
:1006100059488078012805D103235B4A052106202B
:1006200000F00EFE0223594A0021042000F008FECB
:1006300010233A220421084600F068FD5449554829
:10064000006801F001FF054601F096FE84B26420C7
:1006500094FBF0F5102001232A4605210090042088
:1006600000F0A8FD10232E220621042000F04EFDEC
:10067000642094FBF0F100FB11400A2815DA1020E9
:100680000123002207210090042000F093FD0A209E
:1006900094FBF0F100FB1145102001232A460821AC
:1006A0000090042000F086FD0CE0642094FBF0F143
:1006B00000FB1145102002232A4607210090042048
:1006C00000F078FD102356220921042000F01EFDC1
:1006D0000223314A0021062000F0B2FD10233A2205
:1006E0000421062000F012FD2348C0782249097930
:1006F00040EA0124642094FBF0F5102001232A46EF
:1007000005210090062000F055FD10232E22062121
:10071000084600F0FBFC642094FBF0F100FB114064
:100720000A2815DA10200123002207210090062054
:1007300000F040FD0A2094FBF0F100FB1145102071
:1007400001232A4608210090062000F033FD0CE02A
:10075000642094FBF0F100FB1145102002232A468F
:1007600007210090062000F025FD102356220921C4
:10077000062000F0CBFC38BD660000202F000020D2
:10078000F64100083642000876420008F6480008A4
:100790000000C84220000020B64800082DE9F041C2
:1007A000024600250026002000230024002791F89F
:1007B00003C00CF00F0591F803C00CF0100CBCF155
:1007C000000F03D091F802C04CEA050591F800C073
:1007D000BCF1000F31D0146800202BE04FF0010C69
:1007E0000CFA00F3B1F800C00CEA03069E4220D1D7
:1007F00083004FF00F0C0CFA03F7BC4305FA03FC1F
:100800004CEA040491F803C0BCF1280F06D14FF064
:10081000010C0CFA00FCC2F814C00AE091F803C005
:10082000BCF1480F05D14FF0010C0CFA00FCC2F8E6
:1008300010C0401C0828D1D31460B1F800C0BCF12E
:10084000FF0F34DD546800202EE000F1080C4FF05B
:10085000010808FA0CF3B1F800C00CEA03069E4246
:1008600021D183004FF00F0C0CFA03F7BC4305FABB
:1008700003FC4CEA040491F803C0BCF1280F05D135
:1008800000F1080C08FA0CF8C2F8148091F803C0C3
:10089000BCF1480F07D100F1080C4FF0010808FA2D
:1008A0000CF8C2F81080401C0828CED35460BDE874
:1008B000F0810246002093680B400BB1012000E05C
:1008C00000207047416170470161704700BFFEE73B
:1008D00008B50121082000F0BBFD4FF40050ADF831
:1008E000000010208DF8030003208DF802006946F7
:1008F0000F48FFF753FF4FF48040ADF80000102081
:100900008DF8030003208DF8020069460848FFF7C0
:1009100045FF0A2001F0F6FA4FF400510448FFF7B2
:10092000D3FF4FF480410248FFF7CEFF08BD00001F
:10093000000C014070B50446082500F053FE1DE090
:100940004FF400501249086000F08EF804F0800067
:1009500028B14FF480400E49091F086003E04FF4AE
:1009600080400B4908606006040E00F07DF84FF4EB
:1009700000500749091F086000F076F8281EA5F10D
:100980000101CDB2DCD14FF400500149086070BDC7
:10099000140C014010B500F025FE4FF4005014492E
:1009A000086000F061F84FF480401149091F0860A9
:1009B00000F008FE00F058F84FF400500C49091FF1
:1009C000086000F051F80A480C380068C0F3803025
:1009D00028B14FF4005006490860002010BD4FF4C4
:1009E00000500349086000F03FF80120F6E70000DE
:1009F000140C014010B500F0F5FD4FF4005009490A
:100A000008604000086000F02FF84FF4804005496E
:100A1000091D086000F028F84FF400500149091D35
:100A2000086010BD100C014010B500F0DBFD4FF464
:100A300000500C49086000F017F84FF48040094955
:100A4000086000F011F84FF400500649091F0860D3
:100A500000F00AF84FF480400249091F086000F0D6
:100A600003F810BD140C01407047000008B50121C7
:100A7000102000F0EDFC0121082000F0E9FC4FF40B
:100A80008040ADF8000048208DF8030003208DF869
:100A9000020069460848FFF781FE4FF48050ADF828
:100AA000000048208DF8030003208DF802006946FD
:100AB0000248FFF773FE08BD00100140000C014022
:100AC00010B5044614B101201B4908701A4800787B
:100AD00008B34FF480411948FFF7EBFE28B14FF4FB
:100AE00080511748FFF7E5FEA8B9052001F00AFA82
:100AF0000020114908704FF480411048FFF7D9FEDB
:100B000008B9012010BD4FF480510D48FFF7D1FE08
:100B100080B90220F6E74FF480410848FFF7C9FE8C
:100B2000012807D101030648FFF7C3FE012801D1C0
:100B3000014908700020E5E73A000020001001405C
:100B4000000C014010B50446154800880A2810DA48
:100B500013480088401C12490880084600880A286B
:100B600007D110480088401C0E49088000200C491D
:100B700008800C48008803280EDB0A4800880528F6
:100B80000ADC08480088052802D1002005490880B1
:100B9000204600F009F801E000F042F810BD000026
:100BA000180000201A00002010B5044600F038F8A4
:100BB000082C2ED2DFE804F02D04080D12181E2593
:100BC00080201649086027E04FF4807013490860C0
:100BD00022E04FF40070114908601DE080200F49A9
:100BE00008604000086017E080200C490860800021
:100BF000086011E04FF48070084908604000086008
:100C00000AE0802005490860400008604000086054
:100C100002E000F005F800BF00BF10BD140C014059
:100C20008020034908604000086040000860704769
:100C3000100C014000BFFEE7704700001FB510A177
:100C400003C9CDE90201052202A9302000F012F902
:100C500005226946102000F063F8002406E01DF824
:100C60000400A52800D003E0601CC4B2052CF6DB0C
:100C700000BF052C02D0012004B010BD0020FBE70E
:100C8000A5A5A5A5A500000008B50121082000F034
:100C9000DFFB4FF48060ADF8000010208DF80300FA
:100CA00001208DF8020069461B48FFF777FD0121FE
:100CB000042000F0CDFB1020ADF800008DF80300FB
:100CC00001208DF8020069461448FFF767FD4FF4D4
:100CD00080611148FFF7F8FD10211048FFF7F4FD7F
:100CE0000121082000F0B4FB0120ADF800004820ED
:100CF0008DF8030001208DF8020069460648FFF7D1
:100D00004DFD4FF480610448FFF7DCFD10210348DE
:100D1000FFF7DAFD08BD0000000C014000080140AB
:100D20002DE9F04107460D46164610210B48FFF706
:100D3000C9FD384600F0AEFC8046002405E0FF20E7
:100D400000F0A8FC2855601CC4B2B442F7DB1021A7
:100D50000248FFF7B9FD4046BDE8F08100080140B8
:100D600070B5044610210848FFF7ACFD204600F09E
:100D700091FCFF2000F08EFC054610210248FFF791
:100D8000A3FD284670BD00000008014010B54FF4D7
:100D900080611C48FFF796FD0321084600F08AF8A1
:100DA00005221949302000F065F8052216492A204D
:100DB00000F060F806213D2000F07CF801213C2085
:100DC00000F078F80121212000F074F801212220A0
:100DD00000F070F80C48401E8179252000F06AF878
:100DE0001A21242000F066F80721262000F062F87E
:100DF0000E21202000F05EF84FF480610148FFF7DB
:100E000063FD10BD000C01403D00002070B505469B
:100E10004FF480611648FFF755FD0B222946A020AC
:100E200000F028F84FF480611148FFF74DFD00BF36
:100E300001210F48FFF73DFD0028F9D10720FFF7FA
:100E40008FFF04462146272000F034F800F09EF87A
:100E500004F0100028B1FF21E12000F02BF8102051
:100E600070BD04F0200008B12020F9E7FF20F7E76B
:100E7000000C01402DE9F04107460C4615461021B3
:100E80000B48FFF71FFD384600F004FC80460026A3
:100E900005E014F8010B00F0FDFB701CC6B2AE4279
:100EA000F7DB10210248FFF70FFD4046BDE8F08157
:100EB0000008014070B505460C4610210748FFF7B1
:100EC00001FD284600F0E6FB0646204600F0E2FB66
:100ED00010210248FFF7F8FC304670BD00080140C1
:100EE00070B5002100230F22C47804B3154C246888
:100EF00004F4E064C4F5E064210AC1F10403CA40CB
:100F0000447804FA03F184781440214309010E4C1B
:100F10000678A155047804F01F050124AC4005783B
:100F20006D11AD0005F1E025C5F8004109E0047838
:100F300004F01F050124AC40044D0678761145F8F5
:100F4000264070BD0CED00E000E400E080E100E030
:100F500002490143024A1160704700000000FA058F
:100F60000CED00E008B54FF4A060FFF7F1FF0B2097
:100F70008DF8000000208DF8010001208DF802009E
:100F80008DF803006846FFF7ABFF08BD10B50B22D4
:100F900009496120FFF7C4FE07480078AA2807D155
:100FA0000548807AAC2803D101200449087002E08A
:100FB00000200249087010BD660000202E000020AD
:100FC00070B5002418E004F1B000002100F02CF905
:100FD0000021084600F028F90021102000F024F933
:100FE000002505E00121002000F01EF9681CC5B2B3
:100FF000802DF7DB601CC4B2082CE4DB70BD10B59B
:10100000FFF766FCC82000F07DFF0021AE2000F055
:101010000BF90021084600F007F90021102000F02C
:1010200003F90021402000F0FFF80021B02000F07B
:10103000FBF80021812000F0F7F80021082000F0E3
:10104000F3F80021A12000F0EFF80021A62000F025
:10105000EBF80021A82000F0E7F800213F2000F085
:10106000E3F80021C82000F0DFF80021D32000F0D1
:10107000DBF80021084600F0D7F80021D52000F069
:10108000D3F80021802000F0CFF80021D82000F014
:10109000CBF80021052000F0C7F80021D92000F08E
:1010A000C3F80021F12000F0BFF80021DA2000F0A1
:1010B000BBF80021122000F0B7F80021DB2000F07F
:1010C000B3F80021302000F0AFF800218D2000F0AF
:1010D000ABF80021142000F0A7F80021AF2000F0A9
:1010E000A3F810BD70B504460D4605F1B00000210F
:1010F00000F09AF8102141EA1410002100F094F851
:1011000004F00F00002100F08FF870BD2DE9F047CA
:1011100006460F469046994600250024A8F1200077
:10112000C5B2F806070E7F2F02DD0027B01CC6B23D
:10113000B9F1100F24D131463846FFF7D3FF002410
:1011400008E004EB0511194A505C012100F06CF82D
:10115000601CC4B2082CF4DB701CC1B23846FFF727
:10116000C1FF002409E004EB051108310F4A505C6F
:10117000012100F059F8601CC4B2082CF3DB12E026
:1011800031463846FFF7AEFF00240AE005EB450183
:10119000074A02EB4101085D012100F045F8601C9F
:1011A000C4B2062CF2DBBDE8F0870000CA2D0008AF
:1011B0002E2700082DE9F05F81460E4690461D4619
:1011C000DDF828A04FF0000B002429E0281B401E6A
:1011D000C1B20A2000F044FFB8FBF0F00A21B0FBD6
:1011E000F1F201FB1207BBF1000F0DD1681EA04206
:1011F0000ADD3FB93019C1B2534620224846FFF7F5
:1012000085FF0BE04FF0010B07F13000C2B230193F
:10121000C1B253464846FFF779FF00BF601CC4B215
:10122000AC42D3DBBDE8F09F70B504460D461DB15E
:10123000E0B200F053FD02E0E0B200F039FD70BD15
:101240002DE9FE4F04460D4692461E4600200290B0
:10125000019000907019082804DBC5F10800C0B2A5
:10126000029000E0029627463BE007F1B000002123
:10127000FFF7DAFF00210846FFF7D6FF05F110005F
:101280000021FFF7D1FFDDF8008016E0381B00F0E9
:10129000FF090BE00AEB481010F809B0012158468D
:1012A000FFF7C2FF09F1020000F0FF09B9F1200FBA
:1012B000F0DB08F1010000F0FF0802988045E5DB53
:1012C0000198401CC0B201900198022807D1701902
:1012D000082804DBA01CC4B20296CDF80080781C5C
:1012E000C7B2A01CB842C0DCBDE8FE8F10B53648BE
:1012F00000783649097840EA011035490978884272
:1013000009D0FFF75DFE304800783049097840EA9F
:1013100001102F4908702D48007801280FD12A4864
:10132000007860B903232B4A02210020FFF788FFD1
:101330000923294A00210320FFF782FF42E02248C7
:10134000007801280CD10323244A02210020FFF752
:1013500077FF0923224A00210320FFF771FF31E0C4
:101360001A48007801280CD117480078022808D1C3
:1013700004231C4A02210020FFF762FFFFF71EF939
:1013800020E01248007880B90F48007802280CD07D
:101390000623154A01210020FFF752FF1023134AAC
:1013A00000210320FFF74CFF0CE00848007848B903
:1013B00005480078022805D104230D4A02210020A7
:1013C000FFF73EFF10BD00003C0000202E00002073
:1013D00030000020164100087644000896430008BB
:1013E00096450008F6430008D6420008B6460008B5
:1013F000764100087047000001460020034A50680B
:1014000020F4404008435060704700000010024044
:1014100029B1064A52690243044B5A6104E0034A67
:1014200052698243014B5A6170470000001002402C
:1014300029B1064AD2690243044BDA6104E0034A47
:10144000D2698243014BDA6170470000001002400C
:1014500029B1064A92690243044B9A6104E0034AA7
:1014600092698243014B9A6170470000001002406C
:1014700030B500210022002400232D4D6D6805F0B9
:101480000C0121B1042905D0082923D105E0294DFB
:10149000056022E0274D05601FE0254D6D6805F4CD
:1014A0007012234D6D6805F48034022505EB9242DD
:1014B0001CB9214D554305600BE01D4D6D6805F4C9
:1014C00000351DB11C4D5543056002E0194D5543D3
:1014D000056002E0174D056000BF00BF144D6D6848
:1014E00005F0F0010909154D6B5C0568DD404560AC
:1014F0000F4D6D6805F4E061090A104D6B5C45689D
:10150000DD4085600A4D6D6805F46051C90A0B4DD8
:101510006B5C4568DD40C560054D6D6805F4404174
:10152000890B074D6B5CC568B5FBF3F5056130BDF4
:101530000010024000127A0000093D00480000201F
:10154000580000202DE9F04100241849088900F0D6
:1015500033FF0746164900F077FF06464FF08B41F0
:1015600000F048FE05464FF0804100F06DFF114944
:101570000860084601681048006801F063F80446F6
:101580000E49204601F02CF809D80D49204600F0FC
:1015900027FF04D8084800680649086003E00548AA
:1015A000006805490860BDE8F08100005C0000208B
:1015B0003333534020000020240000208FC2F5BCAC
:1015C0008FC2F53C08B54FF48040ADF80000042010
:1015D0008DF8030069460248FFF7E0F808BD0000F7
:1015E000000C014008B54FF48040ADF80000102019
:1015F0008DF8030003208DF8020069460148FFF7CB
:10160000CDF808BD000C014000B587B001210420D1
:10161000FFF71EFF01210803FFF71AFF012108460B
:10162000FFF716FFE020ADF8040018208DF8070042
:1016300001208DF8060001A91448FFF7AFF84FF418
:101640008270ADF80A000020ADF80800ADF80C007B
:10165000ADF80E00ADF810004FF40070ADF81200B8
:101660001020ADF814000020ADF816000720ADF8EA
:10167000180002A9064800F051F80121044800F0C2
:1016800033F8FF2000F006F807B000BD0008014065
:101690000030014070B50546002405E0601CC4B26E
:1016A000C82C01DD002070BD02210E4800F028F892
:1016B0000028F3D029460B4800F02EF8002405E05E
:1016C000601CC4B2C82C01DD0020ECE701210548F4
:1016D00000F016F80028F3D0024800F01AF8C0B263
:1016E000E1E700000030014021B1028842F04002F1
:1016F000028004E002884FF6BF731A4002807047F0
:101700000246002013890B400BB1012000E00020AD
:1017100070470146888970478181704710B5002263
:10172000028802F441520B884C8823438C8823435F
:10173000CC8823430C8923434C8923438C8923433E
:10174000CC8923431A430280838B4FF2FF742340DA
:1017500083830B8A038210BD704710B500F002F836
:1017600010BD00000CB500200190009033480068C7
:1017700040F480303149086000BF3048006800F410
:10178000003000900198401C0190009818B9019811
:10179000B0F5A06FF1D12948006800F4003010B115
:1017A0000120009001E0002000900098012843D122
:1017B0002348006840F0100021490860084600688E
:1017C00020F0030008600846006840F0020008604E
:1017D0001A48406819494860084640684860084609
:1017E000406840F4806048600846406820F47C10FF
:1017F00048600846406840F4E810486008460068C1
:1018000040F08070086000BF0C48006800F0007075
:101810000028F9D00948406820F0030007494860D3
:101820000846406840F00200486000BF0348406836
:1018300000F00C000828F9D10CBD00000010024097
:10184000002002400448006820B103480068401EA0
:1018500001490860704700001400002010B51348CB
:10186000006840F0010011490860084640681049CE
:1018700008400E494860084600680E4908400B4978
:1018800008600846006820F4802008600846406828
:1018900020F4FE0048604FF41F008860FFF75DFFF2
:1018A0004FF000600449086010BD000000100240C5
:1018B0000000FFF8FFFFF6FE08ED00E021B102880E
:1018C00042F08002028004E002884FF67F731A40E3
:1018D0000280704721B1028842F00102028004E0D8
:1018E00002884FF6FE731A400280704770B50022DE
:1018F00000230024058C4EF6FF7635400584038CCA
:101900008488828B48F6FF752A404FF6FF452A40AF
:101910000D884FF6FF7606EA05252A434DF6FF753A
:101920002B400D8906EA05352B434D8806EA05351F
:101930002B430B4DA84202D00A4DA84208D14BF6CA
:10194000FF752C408D894FF6FF7606EA85152C43EE
:1019500084808283CD88A0F84050038470BD00004D
:10196000002C0140003401400A460021818B4FF2D7
:10197000FF7319404FF6FF7303EA02231943818373
:1019800070470000002202881D4B98420ED01D4B6C
:1019900098420BD0B0F1804F08D01B4B984205D035
:1019A0001A4B984202D01A4B984204D14FF68F73CB
:1019B0001A404B881A43174B984207D0164B98424F
:1019C00004D04FF6FF431A40CB881A4302808B881D
:1019D00083850B8803850A4B98420BD0094B9842AC
:1019E00008D00E4B984205D00D4B984202D00D4BBB
:1019F000984201D10B7A038601238382704700004D
:101A0000002C014000340140000400400008004068
:101A1000000C004000100040001400400040014055
:101A2000004401400048014021B1828942F4005243
:101A3000828104E082894DF6FF731A4082817047EB
:101A400002460020B1F5007F00D100BF13880B4093
:101A50000BB1012000E000207047F0B503460024E0
:101A600000260025002040F66A17B94200D100BFC9
:101A70001846C1F3421401F01F06012707FA06F5C4
:101A8000012C01D10C3004E0022C01D1103000E017
:101A900014301AB107682F43076002E00768AF43AC
:101AA0000760F0BD2DE9F04786B005460E460024DC
:101AB000A24600BFA1460027B08900B100BF2F4653
:101AC0002C8A4CF6FF700440F08804432C82AC89C9
:101AD0004EF6F3100440B0883189084371890843F9
:101AE0000443AC81AC8A4FF6FF400440B089044304
:101AF000AC8201A8FFF7BCFC1F48874202D1DDF889
:101B000010A001E0DDF80CA0A88900F4004040B16D
:101B10000AEBCA0000EB0A1031684900B0FBF1F88B
:101B200007E00AEBCA0000EB0A1031688900B0FB3D
:101B3000F1F86420B8FBF0F004012009642101FBF6
:101B40001089A88900F4004040B1322000EBC900A0
:101B5000B0FBF1F000F00700044308E0322000EB96
:101B600009106421B0FBF1F000F00F0004432C8158
:101B700006B0BDE8F087000000380140C1F308025C
:101B80008280704700BFFEE710B586B00446012191
:101B900044F20500FFF75CFC4FF40070ADF8140050
:101BA00018208DF8170003208DF8160005A9174896
:101BB000FEF7F4FD4FF48060ADF8140004208DF8BA
:101BC000170003208DF8160005A91048FEF7E6FD62
:101BD00001940020ADF80800ADF80A00ADF80C0043
:101BE000ADF810000C20ADF80E0001A90848FFF771
:101BF00059FF012240F225510548FFF72EFF012130
:101C00000348FFF711FF06B010BD000000080140B7
:101C10000038014010B522480078D8B92148008822
:101C2000B0F5617F16DD01201D4908701E4800785F
:101C300048701D4841781A4881701B4881781848BF
:101C4000C1701948C17816480171417841711E2050
:101C50001349887113480088642820DA10480078F6
:101C600001281CD181021148FEF72CFE05220C49E7
:101C7000491C3020FFF7FEF805220949491C2A209B
:101C8000FFF7F8F8064881792520FFF713F94FF49C
:101C900080610648FEF718FE02200149087010BD59
:101CA0003C0000202800002044000020000C0140DF
:101CB00010B50446FEF79EFE7820FEF73BFEFEF7C9
:101CC00069FE0020FEF736FEFEF764FE2046FEF7B2
:101CD00031FEFEF75FFEFEF7A7FE10BD10B504460D
:101CE000FEF788FE7820FEF725FEFEF753FE402023
:101CF000FEF720FEFEF74EFE2046FEF71BFEFEF727
:101D000049FEFEF791FE10BD00BF704700B585B0DB
:101D100001214802FFF79CFB00208DF8050003908D
:101D20004FF4202002900020009005208DF8100034
:101D300001208DF8040069462248FEF735FB012199
:101D40002048FEF7C7FA01211E48FEF7D6FA4FF4E5
:101D50004040FFF751FB0623012200211948FEF7FE
:101D60004BFB0623022201211648FEF745FB062302
:101D7000032202211348FEF73FFB0623042203211E
:101D80001048FEF739FB0723052209210D48FEF70D
:101D900033FB0C48FEF78CFB00BF0A48FEF7F9FA4C
:101DA0000028FAD10748FEF788FB00BF0548FEF778
:101DB000F0FA0028FAD101210248FEF7DFFA05B057
:101DC00000BD00000024014008B501210420FFF7F8
:101DD0003FFB0F20ADF8000000208DF8030069469E
:101DE0000848FEF7DBFC01210820FFF731FB022049
:101DF000ADF8000000208DF8030069460248FEF7A8
:101E0000CDFC08BD00080140000C014070B504463F
:101E1000608800F0D1FA0646164900F015FB054629
:101E200000F0AAFA14490880208800F0C5FA064696
:101E3000124900F009FB054600F09EFA0E490871B0
:101E4000E08800F0B9FA06460C4900F0FDFA0546B4
:101E500000F092FA08498870A08800F0ADFA0646B2
:101E6000064900F0F1FA054600F086FA0249C8700A
:101E700070BD0000910F7A3E28000020740CC83C11
:101E80001D490978012916D1A82101701A494978FC
:101E900041701949897881701749C978C17016490C
:101EA000097901711449497941711349897981711D
:101EB0008B2181721FE01049097802291BD1A821CA
:101EC00001700E49097841700C49497881700B49BD
:101ED0008978C1700949C978017108490979417146
:101EE00007494978817106498978C17100210172D9
:101EF00041728B21817270473C0000202800002035
:101F00003200002000B970474FF47A7141430D4A06
:101F1000116000214FF0E02291611146096941F002
:101F20000101116100BF074909680029FBD14FF089
:101F3000E021096921F001014FF0E022116100BFA9
:101F4000E1E700001400002070B504460D4600BF14
:101F500040210548FFF774FD0028F9D0E1B202489E
:101F6000FFF70CFE204670BD003801400A480068AB
:101F70000A4908600848001F006848600648083899
:101F80000068886008460068496808430349896812
:101F90000843034908607047F0F7FF1F7C000020EA
:101FA0004400002010B50120FEF78AFD0B4908709F
:101FB00008460078012801D1E120487007480078E0
:101FC000022802D1C820054988700448007818B951
:101FD000002002494870887010BD000032000020C7
:101FE000FFF73CFC00F048F84FF4E130FFF7CCFD80
:101FF00017A0FEF7EBF8FFF7B9FFFFF705FBFEF7B9
:1020000043FE05E00120FEF79DFD0A20FFF77AFF61
:10201000FEF714FE0028F5D1FEF7B8FEFEF726FD08
:10202000FEF763F900F040F8FEF7E9FFFEF7C8FF9E
:10203000FEF798FF6420FFF765FF07E0FFF7EAFD72
:10204000FFF7B0FFFFF77EFAFFF750F9F6E7000061
:102050007573617274206973206F6B0D0A00000044
:1020600010B50246012000E050430B1EA1F101040F
:10207000E1B2F9D110BD0000094800680949B0FB80
:10208000F1F0401E4FF0E0214861002088610620F9
:1020900008610846006920F00100086170470000EF
:1020A0000000002040420F0000B587B0012104204D
:1020B000FFF7BEF90020ADF816004720ADF810007C
:1020C0000020ADF8120044F61F60ADF8140004A91A
:1020D0001048FFF757FC6020ADF800000020ADF875
:1020E00008000120ADF8020041F28830ADF806008A
:1020F00069460848FFF7FAFB01210648FFF7DEFBB7
:1021000008210448FFF730FC01210248FFF7E2FBF9
:1021100007B000BD0008004090EA010F48BF81F001
:10212000004100F19682421A3CBF801A89184FEA9A
:10213000D0524FF07F4C1CEA410FA2EBD15318BF95
:102140009CEA026F00F03B804FF0004C4CEA00200C
:102150004CEA012121FA03FC10EB0C0C1ED202F117
:10216000FF325FEA1C2040EBC25038BF70471CF0C2
:102170007F0F4FEA400C18BFBCF17F4F38BF70474C
:10218000C3F12003994008BF20F00100BCF17F4F4C
:1021900038BF7047A0F1C04000F01DBA4FEA3C00C4
:1021A000000A40EBC25028BF1CF0FF0F4FEA400C62
:1021B000E6D018BFBCF17F4F38BF7047EAE79CEA12
:1021C000026F05D010EA5C0F08BF00F000407047B6
:1021D00010B500F0BAF900BF64FBBE3E401058BF16
:1021E000C0F14040491058BFC1F140418142EFF376
:1021F000008070474FF47F0C1CEAD0121EBF1CEA0F
:10220000D11392EA0C0F93EA0C0F00F0858090EA4C
:10221000010F48BF42F4807240F4000C41F400000A
:102220002CF07F4120F07F4000B58142A2EB0302F9
:102230000FF2081CACEB504EC0F100009EF800E01D
:102240004FEA4E0E00FB0EFC38BF49004FEA2C1C33
:1022500002F5FA020CFB0EF34FEACE1E4FEA112CE8
:102260004FEAC1210EEB635E42EB22420EFB0CFCF7
:102270004FEA1C5300FB03114FEA112C4FEA0131C6
:102280000EFB0CFC4FEADC4C00FB0C11C14228BFDA
:1022900009184CEB03335DF804EB10EB410143EB01
:1022A000C250B2F57C0F38BF704729D512F0F00F3D
:1022B0001CBF00F1C04000F00040704700818283E5
:1022C0008485868788898B8C8D8E8F919293959645
:1022D00097999A9C9D9FA0A2A3A5A7A8AAACAEB0CF
:1022E000B2B3B5B7B9BCBEC0C2C5C7C9CCCED1D4D4
:1022F000D7D9DCDFE2E6E9ECF0F3F7FAFE00000004
:102300004FEA400C0CF1807CBCF17E4F28BF704737
:10231000B0F1C04000F05FB990EA010F0CEAD113B0
:1023200048BF42F48072624538BF634507D213F458
:102330007F0F16D080EA010000F00040704710B512
:1023400000F003F9097EFC3E00F005B880EA0100C8
:1023500000F00040704780EA010000F0004000F00B
:102360003AB912F47F0F04BF0248704780EA0100B7
:1023700000F031B90000C07FC10DD1F19E0206DB33
:102380004FEA002343F0004323FA02F07047004273
:1023900007D54FEA4001B1F1FE4F02D24FF00000E5
:1023A000704710B500F0D1F84992248000207047A2
:1023B0006FEA200070470000B0FA80F310FA03F2D1
:1023C000C3F19D030AD0D90501EB1220530638BF93
:1023D000704700F1010008BF20F0010070470000C5
:1023E00050EA010C00F113801CF5000F58BFBCF53A
:1023F000000F01D48842704707D710F5000F58BF6F
:1024000011F5000F15D488427047894270471CF5BA
:10241000000F04D5BCF5000FF7D5814270474FF08F
:10242000807C1CEB400F38BF1CEB410F01D2814276
:10243000704710B500F089F8922449004FF0005021
:102440004FF08051FFF7CABE4FF47F0C1CEAD01248
:102450001EBF1CEAD11392EA0C0F93EA0C0F00F096
:10246000478090EA010F48BF42F480724FF0004C61
:102470004CEA00204CEA012102EB0302A0FB01130D
:10248000A2F50002002918BF43F001035B0028BF3A
:102490004FEA330342EB22425FEA132C4CEBC2506B
:1024A0002EBFBCEB436FB2F57C0F70474FEA036C55
:1024B000BCF1004F08BF20F00100B2F57C0F38BF1F
:1024C00070470BD582F0FF0212F5803FC8BF7047FE
:1024D00000F1C040D8BF00F00040704700F5000C8C
:1024E0005FEA4C0C48BF7047B0F1C04000F073B8D1
:1024F00090EA010F0CEAD11348BF42F480726245A2
:1025000038BF634504D280EA010000F00040704704
:1025100010B500F01AF800BF8900013E00F007B8BE
:1025200000F009B85FEA410C5FEA1C6C08D080EA51
:10253000010000F050B85FEA400C5FEA1C6CF6D175
:102540004FF00040A0F5800070470EF1020E2EF013
:10255000030E5EF8044B244204D44FEA4102B2F168
:102560007F4F11D84FEA4003B3F17F4F0CD80ED103
:102570004FEAD07CB2F17F4F0CEB4C0C0CF1020C0B
:1025800008BF4CEBD17C04E04FF0080C01E04FEAAF
:10259000D17C0CEB4C0324FA03F404F00704B4F1EF
:1025A000040C06D20EEB840CBDE810404CF0010C7C
:1025B0006047DFE80CF0070802024FF00040A0F58A
:1025C000800010BD0846420018BFD2F1807288BF5B
:1025D00000F0004010BDFF2141EAD050C005704717
:1025E00051EA000C00F113801CF5000F58BFBCF538
:1025F000000F01D48142704707D711F5000F58BF73
:1026000010F5000F15D481427047894270471CF5C0
:10261000000F04D5BCF5000FF7D5884270474FF086
:10262000807C1CEB410F38BF1CEB400F01D288426D
:10263000704780EA010081EA000180EA0100FFF7AB
:10264000F8BE000090EA010F48BF81F000413FF55D
:102650006AAD421A04D882F00042A0EB0200114495
:102660004FEAD0524FF07F4C1CEA410FA2EBD153FE
:1026700018BF9CEA026F4AD04FF0004C4CEA002091
:102680004CEA012121FA03FCB0EB0C0C0FD412F040
:10269000FE0F36D05FEA4C001DD5001240EBC25051
:1026A00038BF70471CF03F0F18BF70470BE0A2F116
:1026B00001025FEA1C2040EBC25038BF70471CF09B
:1026C0007F0F18BF7047C3F12003994014BF401E0D
:1026D00020F00100704780084FEA122308BF7047BE
:1026E000B0FA80FCA2EB0C02CCF1280C60FA0CF0E2
:1026F00093EA122F04BF00EBC25070474FEAC37039
:102700007047130A5FEADC1008BF7047F6E79CEADF
:10271000026F04D010EA5C0F08BF0020704710B5AC
:10272000FFF713FF40DFF63E81F0004070470000E6
:10273000000000000000002F00000000070007005C
:1027400000147F147F1400242A7F2A120062640878
:1027500013230036495522500000050300000000F5
:102760001C224100000041221C000014083E0814F5
:102770000008083E0808000000A0600000080808E3
:102780000808000060600000002010080402003EFD
:102790005149453E0000427F400000426151494698
:1027A000002141454B31001814127F100027454588
:1027B0004539003C4A49493000017109050300369A
:1027C0004949493600064949291E000036360000AD
:1027D00000005636000000081422410000141414B2
:1027E00014140000412214080002015109060032AD
:1027F0004959513E007C1211127C007F49494936EB
:10280000003E41414122007F4141221C007F494955
:102810004941007F09090901003E4149497A007F89
:102820000808087F0000417F4100002040413F012F
:10283000007F08142241007F40404040007F020C8E
:10284000027F007F0408107F003E4141413E007F2F
:1028500009090906003E4151215E007F09192946F8
:102860000046494949310001017F0101003F4040D4
:10287000403F001F2040201F003F4038403F006382
:1028800014081463000708700807006151494543A4
:1028900000007F41410000552A552A550000414162
:1028A0007F0000040201020400404040404000005C
:1028B00001020400002054545478007F48444438F6
:1028C00000384444442000384444487F003854547D
:1028D000541800087E0901020018A4A4A47C007FFB
:1028E000080404780000447D4000004080847D009E
:1028F000007F102844000000417F4000007C041845
:102900000478007C0804047800384444443800FC0F
:10291000242424180018242418FC007C080404082B
:1029200000485454542000043F444020003C4040A0
:10293000207C001C2040201C003C4030403C0044D7
:1029400028102844001CA0A0A07C004464544C44DF
:1029500014141414141400000000000000000000FF
:102960000000000000003F400000000000000000E8
:102970003000400030004000000009000BC03D0066
:102980000BC03D00090018C024407FE02240318088
:102990000000180024C01B000D803240018003801D
:1029A0001C4027401C8007400040100060000000D1
:1029B0000000000000000000000000001F80204018
:1029C00040200000402020401F800000000009003F
:1029D00006001F80060009000000040004003F807C
:1029E000040004000000001000600000000000006F
:1029F00000000400040004000400040000000000C3
:102A000000400000000000000000002001C006009F
:102A10003800400000001F802040204020401F80E0
:102A20000000000010403FC000400000000018C03F
:102A300021402240244018400000108020402440C3
:102A400024401B80000002000D0011003FC0014027
:102A500000003C80244024402440238000001F804C
:102A6000244024403440038000003000200027C070
:102A70003800200000001B802440244024401B809C
:102A800000001C0022C0224022401F8000000000E5
:102A9000000008400000000000000000000004608A
:102AA000000000000000000004000A001100208067
:102AB0004040090009000900090009000000000069
:102AC0004040208011000A0004001800200023402C
:102AD0002400180000001F802040274029401F408C
:102AE0000000004007C039000F0001C00040204036
:102AF0003FC0244024401B8000001F802040204015
:102B000020403080000020403FC0204020401F80F7
:102B1000000020403FC024402E4030C00000204034
:102B20003FC024402E00300000000F0010802040E5
:102B300022403380020020403FC0040004003FC018
:102B40002040204020403FC0204020400000006046
:102B5000202020203FC02000200020403FC02440F3
:102B60000B0030C0204020403FC0204000400040CB
:102B700000C03FC03C0003C03C003FC000002040FC
:102B80003FC00C4023003FC020001F802040204059
:102B900020401F80000020403FC024402400180037
:102BA00000001F802140214020E01FA000002040A5
:102BB0003FC02440260019C0004018C024402440D3
:102BC000224031800000300020403FC020403000D3
:102BD000000020003F80004000403F802000200097
:102BE0003E0001C0070038002000380007C03C004C
:102BF00007C038000000204039C0060039C020401E
:102C000000002000384007C038402000000030405D
:102C100021C02640384020C00000000000007FE0B6
:102C2000402040200000000070000C0003800040A5
:102C300000000000402040207FE000000000000075
:102C400020004000200000000000001000100010D4
:102C50000010001000100000000040000000000004
:102C60000000000002800540054003C00040200035
:102C70003FC0044004400380000000000380044083
:102C800004400640000000000380044024403FC090
:102C900000400000038005400540034000000000A4
:102CA00004401FC0244024402000000002E00550E2
:102CB00005500650042020403FC00440040003C0DB
:102CC00000400000044027C0004000000000001049
:102CD0000010041027E00000000020403FC0014029
:102CE000070004C00440204020403FC00040004096
:102CF000000007C0040007C0040003C00000044037
:102D000007C00440040003C00040000003800440EA
:102D1000044003800000041007F0045004400380C6
:102D20000000000003800440045007F0001004403D
:102D300007C00240040004000000000006400540F7
:102D4000054004C00000000004001F800440004053
:102D50000000040007800040044007C00040040059
:102D6000070004C0018006000400060001C007003F
:102D700001C006000000044006C0010006C0044077
:102D800000000410071004E00180060004000000A9
:102D9000044005C00640044000000000000004009C
:102DA0007BE040200000000000000000FFF0000079
:102DB0000000000040207BE0040000000000400014
:102DC00080004000200020004000000000000000C3
:102DD00000000000000000000000000000F80000FB
:102DE0000000000000333000000000100C06100C42
:102DF0000600000000000000000040C07840C078DD
:102E00004000043F04043F040400007088FC0830C4
:102E10000000001820FF211E0000F008F000E0185C
:102E2000000000211C031E211E0000F00888700015
:102E300000001E2123241927211010160E00000067
:102E400000000000000000000000000000E0180486
:102E50000200000000071820400000020418E000F3
:102E600000000040201807000000404080F0804033
:102E700040000202010F01020200000000F0000009
:102E800000000101011F010101000000000000001D
:102E9000000080B070000000000000000000000092
:102EA000000000010101010101010000000000001B
:102EB00000000030300000000000000000008060D2
:102EC0001804006018060100000000E01008081057
:102ED000E000000F102020100F00001010F800007C
:102EE00000000020203F2020000000700808088813
:102EF00070000030282422213000003008888848E3
:102F000030000018202020110E000000C02010F812
:102F1000000000070424243F240000F808888808E3
:102F200008000019212020110E0000E010888818E8
:102F30000000000F112020110E0000380808C838CA
:102F400008000000003F00000000007088080888AA
:102F50007000001C222121221C0000E01008081033
:102F6000E0000000312222110F00000000C0C0006C
:102F70000000000000303000000000000080000071
:102F80000000000080600000000000008040201071
:102F9000080000010204081020004040404040406A
:102FA00040000404040404040400000810204080CD
:102FB0000000002010080402010000704808080802
:102FC000F0000000003036010000C030C828E810D2
:102FD000E0000718272423140B000000C038E0008D
:102FE0000000203C23020227382008F888888870D7
:102FF0000000203F202020110E00C03008080808E3
:103000003800071820202010080008F808080810C9
:10301000E000203F202020100F0008F88888E808F2
:103020001000203F20202320180008F88888E80896
:103030001000203F200003000000C03008080838BE
:10304000000007182020221E020008F808000008CF
:10305000F808203F210101213F20000808F8080856
:1030600000000020203F2020000000000808F80891
:103070000800C08080807F00000008F888C0281801
:103080000800203F20012638200008F80800000032
:103090000000203F20202020300008F8F800F8F839
:1030A0000800203F003F003F200008F830C0000823
:1030B000F808203F200007183F00E010080808101B
:1030C000E0000F10202020100F0008F80808080862
:1030D000F000203F210101010000E0100808081065
:1030E000E0000F18242438504F0008F8888888889A
:1030F0007000203F2000030C302000708808080872
:1031000038000038202121221C00180808F808087F
:1031100018000000203F2000000008F80800000808
:10312000F808001F202020201F000878880000C811
:103130003808000007380E010000F80800F8000801
:10314000F800033C0700073C03000818688080680B
:10315000180820302C03032C30200838C800C83849
:1031600008000000203F2000000010080808C838B0
:1031700008002038262120201800000000FE02024E
:1031800002000000007F40404000000C30C0000002
:103190000000000000010638C00000020202FE002C
:1031A0000000004040407F000000000004020202D6
:1031B000040000000000000000000000000000000B
:1031C00000008080808080808080000202040000F7
:1031D00000000000000000000000000080808080EF
:1031E00000000019242222223F2008F800808000DD
:1031F0000000003F112020110E00000000808080A0
:103200000000000E112020201100000000808088A6
:10321000F800000E112020103F20000080808080E8
:103220000000001F222222221300008080F08888E4
:1032300088180020203F202000000000808080802F
:103240008000006B94949493600008F80080808064
:103250000000203F210000203F20008098980000BF
:1032600000000020203F20200000000000809898EF
:10327000000000C08080807F000008F8000080808F
:103280008000203F24022D302000000808F80000B4
:1032900000000020203F202000008080808080806F
:1032A0008000203F20003F20003F80800080808001
:1032B0000000203F210000203F200000808080800F
:1032C0000000001F202020201F0080800080800040
:1032D000000080FFA12020110E00000000808080EF
:1032E0008000000E112020A0FF8080808000808060
:1032F000800020203F21200001000000808080808D
:1033000080000033242424241900008080E0808081
:1033100000000000001F20200000808000000080CE
:103320008000001F202020103F208080800000802F
:10333000808000010E30080601008080008000803F
:1033400080800F300C030C300F00008080008080E4
:1033500080000020312E0E3120008080800000800F
:10336000808080818E7018060100008080808080BF
:1033700080000021302C2221300000000000807CE1
:10338000020200000000003F404000000000FF007B
:10339000000000000000FF0000000002027C80002E
:1033A00000000040403F0000000000060101020252
:1033B0000404000000000000000000000000000005
:1033C00000000000000000000000000000000000FD
:1033D00000000000000000000000000000000000ED
:1033E000000000000000000000000000000F803816
:1033F0000FFE380F803800000000000000000000C1
:1034000000000000000000000100000600000C00A9
:10341000003800003100000600000C0000380000F9
:103420003000000000000000000061800067F80725
:10343000F980006180006180006180006180006728
:10344000F807F98000618000000000000000000023
:1034500001C0E003E0F00630080418081FFFFE0476
:103460000E080787F00381E000000000000001F073
:1034700000060C00040408060C7001F9C0000E00E0
:10348000003BE000EC18070808040C180003E000FB
:1034900000000001E00007F003F818041C080417FE
:1034A0000807E1D003C0E00023B0003C080020087A
:1034B0000000100000000000000100003100003298
:1034C00000001C00000000000000000000000000E0
:1034D00000000000000000000000000000000000EC
:1034E000000000000000000000007F0001FFC00796
:1034F00080F00C0018100004200002000000000002
:10350000002000021000040C00180780F001FFC02A
:10351000007F00000000000000000000000000002C
:103520000000000000004200006600006600003C51
:103530000000180003FFC0001800003C00006600F7
:1035400000660000420000000000080000080000C3
:10355000080000080000080001FFC0000800000883
:103560000000080000080000080000000000000142
:1035700000003100003200001C00000000000000CC
:10358000000000000000000000000000000000003B
:103590000000080000080000080000080000080003
:1035A00000080000080000080000080000080000F3
:1035B000000000000000000000003800003800009B
:1035C00038000000000000000000000000000000C3
:1035D00000000000000000000000000600001C00C9
:1035E0000070000180000E0000380000C0000700DD
:1035F000001C0000300000000000000000007F8080
:1036000001FFE003807006001804000804000806AB
:10361000001803807001FFE0007F800000000000C0
:103620000000000001000801000801000803FFF885
:1036300007FFF80000080000080000080000000074
:10364000000000000001C03802C0580400980401C6
:1036500018040218040418061C1803F81801E0F8EE
:1036600000000000000000000001C0E003C0F00402
:10367000000804080804080806180803F41801E7FD
:10368000F00001E000000000000000000000030066
:10369000000D00001100006100008108030108070F
:1036A000FFF80FFFF800010800010800000000000B
:1036B000000000E007FCD006080806100806100805
:1036C000061008061838060FF00607C000000000B4
:1036D0000000000000003F8001FFE003843002088A
:1036E00018041008041008041008071810030FF03D
:1036F0000007C000000000000000000003C0000739
:1037000000000600000600F80607F806180006E0AC
:103710000007000006000000000000000001E1E0DA
:1037200003F7F0063410041808041808040C080401
:103730000C0806161803F3F001C1E00000000000B9
:103740000000F80003FC30030638040208040208F5
:103750000402080404100308F001FFC0007F000009
:103760000000000000000000000000000000000059
:103770000000703800703800703800000000000051
:103780000000000000000000000000000000000039
:10379000000000000000301A00301C000000000093
:1037A0000000000000000000000000000000000019
:1037B0000008000014000022000041000080800189
:1037C0000040020020040010080008000000000073
:1037D0000000210000210000210000210000210044
:1037E0000021000021000021000021000021000034
:1037F00000000000000000000800080400100200A3
:1038000020010040008080004100002200001400E0
:1038100000080000000000000003C00004C0000415
:103820000000080038080F380808380810000C306D
:103830000007E00003C000000000000000003F801F
:1038400000FFE0038070020F1006708804C0880437
:103850008308047F8802C09003012000FE4000001E
:10386000080000180001F8003E0801C2000702002D
:1038700007E20000FE00001FC80001F80000380049
:10388000000804000807FFF807FFF8040808040808
:103890000804080804080806180803F41801E7F0EB
:1038A0000001E0000000000000003F8001FFE00395
:1038B00080700200180400080400080400080400D6
:1038C000100600200780C000000004000807FFF871
:1038D00007FFF804000804000804000804001802A8
:1038E000001003807001FFE0007F800000000400F2
:1038F0000807FFF807FFF804080804080804080888
:10390000040808043E0804000806001801006000CE
:10391000000004000807FFF807FFF804080804087F
:1039200000040800040800043E0006000006000031
:10393000018000000000000000003F8001FFE00364
:10394000807006001804000804020804020802033C
:10395000F00783F000020000020004000807FFF8EF
:1039600007FFF8040808000800000800000800002D
:10397000080004080807FFF807FFF8040008000023
:103980000000000004000804000804000807FFF815
:1039900007FFF80400080400080400080000000005
:1039A0000000000000000006000007000001040005
:1039B0000104000104000307FFFE07FFFC040000F0
:1039C00004000004000004000807FFF807FFF804E3
:1039D0000C08001800003E0004C7800503C806005C
:1039E000F804003804001800000804000807FFF875
:1039F00007FFF804000800000800000800000800A5
:103A0000000800000800001800006000000004002A
:103A10000807FFF807800807FC00007FC00003F8D4
:103A20000007C000780007800807FFF807FFF804C8
:103A3000000804000807FFF807000803C00000E0C2
:103A400000003800001E000007000001C00400F064
:103A500007FFF8040000000000007F8001FFE00382
:103A6000807006001804000804000806001803000F
:103A70003001FFE0007F8000000004000807FFF82D
:103A800007FFF8040408040400040400040400040C
:103A90000400060C0003F80001F000000000000024
:103AA00000007F8001FFE00380700600880400882A
:103AB0000400C806003C03003E01FFE6007F8400CE
:103AC000000004000807FFF807FFF80408080408CE
:103AD00000040C00040F00040BC00610F003F038C3
:103AE00001E00800000800000001E0F803F03006E3
:103AF0003010041808041808040C08040C08020606
:103B0000180207F00781E0000000018000060000B5
:103B100004000004000004000807FFF807FFF80491
:103B200000080400000400000600000180000400FA
:103B30000007FFE007FFF00400180000080000087D
:103B400000000800000800000804001007FFE0045F
:103B5000000004000006000007E00007FE00041F4C
:103B6000E00001F80000380001E0043E0007C0005A
:103B700006000004000004000007E00007FFC00486
:103B80001FF80007C007F80007FF80043FF8000790
:103B9000C004F80007000004000000000004000852
:103BA00006001807C07805F1C8003E00001F800419
:103BB00063E80780F806001804000800000004000D
:103BC0000006000007800007E008047C08001FF8DA
:103BD0000007F800180804E00807000006000004C9
:103BE00000000000000100080600380400F804038B
:103BF000E8040F08047C0805F00807C0080700184F
:103C00000400600000000000000000000000000050
:103C100000000000003FFFFE200002200002200004
:103C2000022000022000020000000000000000004E
:103C300008000007000000C0000038000006000077
:103C400001C000003000000E000001000000000074
:103C500000000000200002200002200002200002DC
:103C60002000023FFFFE00000000000000000000F6
:103C7000000000000000000000000008000010002C
:103C8000003000002000003000001000000800009C
:103C90000000000000000000010000010000010021
:103CA000000100000100000100000100000100000F
:103CB0000100000100000100000100000000000000
:103CC0000000002000002000001000001000000094
:103CD00000000000000000000000000000000000E4
:103CE000000000F00019F8001B1800220800260848
:103CF000002408002410003FF8001FF8000008000E
:103D0000001800000004000007FFF80FFFF0001883
:103D100018001008002008002008003018001FF0CC
:103D2000000FC00000000000000007C0001FF000EE
:103D30001830002008002008002008003C08001C63
:103D4000100000600000000000000000000007C03C
:103D5000001FF00038180020080020080020080488
:103D6000101007FFF80FFFF0000010000000000027
:103D7000000000000007C0001FF0001230002218F1
:103D8000002208002208003208001E10000E200049
:103D9000000000000000200000200800200801FFB3
:103DA000F803FFF806200804200804200807200074
:103DB00003000000000000000000000E000E6E0076
:103DC0001FF30031B10020B10020B1003191001F7C
:103DD00013002E1E00200E0030000000000400081A
:103DE00007FFF80FFFF80010080020000020000077
:103DF0002008003FF8001FF8000008000000000045
:103E000000000000002008002008002008063FF8FD
:103E1000063FF8000008000008000008000000004D
:103E2000000000000000000000000300000300206C
:103E300001002001002003063FFE063FFC000000B9
:103E400000000000000000000004000807FFF80F59
:103E5000FFF8000188000300002FC00038F80020A0
:103E600038002008000008000000000000000000EA
:103E700004000804000804000807FFF80FFFF8001A
:103E800000080000080000080000000000000020FA
:103E900008003FF8003FF8001008002000003FF83D
:103EA000003FF8001008002000003FF8003FF80035
:103EB0000008000000002008003FF8003FF8001054
:103EC00008001000002000002008003FF8001FF844
:103ED0000000080000000000000007C0000FF00014
:103EE00018300030080020080020080030080018B2
:103EF00030000FF00007C0000000000000002001AB
:103F0000003FFF003FFF00101100200900200800C3
:103F10002008003038001FF0000FC0000000000033
:103F2000000007C0001FF00038180020080020081B
:103F3000002009001011001FFF003FFF00000100DA
:103F40000000002008002008002008003FF8003F83
:103F5000F8000808001008002008002000003000C9
:103F6000003000000000000000000000000C78009D
:103F70001E180033080023080021080021880021B2
:103F8000980030F0003860000000000000002000C1
:103F900000200000200000FFF003FFF800200800D0
:103FA0002008002008000030000000000000000091
:103FB00000002000003FF0007FF80000180000081B
:103FC000000008002010003FF8007FF00000100003
:103FD0000000000000002000003000003C00003F16
:103FE000800023F0000078000070002380003C0077
:103FF000003000002000002000003C00003FE000F6
:1040000023F80000E0002700003E00003FE0002110
:10401000F80001E0003E0000200000000000200841
:10402000002008003838003E680027800003C800E0
:104030002CF800383800201800200800000000008C
:1040400000002000003003003C01003F830023EC0F
:10405000000070002380003C0000200000200000D1
:104060000000000000000000003808002038002098
:10407000F80023E8002F88003E08003808002018C8
:1040800000007000000000000000000000000000C0
:1040900000000000000008000014001FF7FC3000C2
:1040A00006200002000000000000000000000000E8
:1040B000000000000000000000000000FFFFFF0003
:1040C00000000000000000000000000000000000F0
:1040D000000000002000023000061FF7FC00140062
:1040E00000080000000000000000000000000000C8
:1040F00000000000001800006000004000004000C8
:10410000002000001000000800000400000400006F
:104110000C0000100000802080208810880888048F
:1041200088028801FFFF88018802880488088810B7
:10413000802080200000000008204810880C080320
:10414000C80438180000900010431080FF7F100052
:1041500010001000000040907C8E40407F4F4820AF
:10416000481E4080F24F12201A18D6071210122053
:10417000F24F02800000000180006000F8FF07009D
:104180000000040024F924492549264924492449EA
:1041900024F904000000800080008000BE06A20513
:1041A000A204A204A204A244A284A244BE3C8000B1
:1041B00080008000000000020002244224E2245219
:1041C000244A2446FC43224222422252236222C233
:1041D0000002000200000081408130411E211011C8
:1041E000100D1003FF011003100D101110211041CC
:1041F000008100810000200110012C01E77F2421B3
:1042000024110080E24F2C202010BF0F2010282006
:10421000E64F0080000010800C404420441E4420E3
:1042200044404540C67F4444444444444444444498
:1042300014400C40000020801060EC1F2709F43F60
:104240002C89E0FF0000220A92090E09D2FF220900
:104250001E0900080000200110012C01E77F242125
:1042600024110080E24F2C202010BF0F20102820A6
:10427000E64F0080000000000000F81F8808880852
:1042800088088808FF7F8888888888888888F89FB9
:10429000008000F00000200020802080BEAFAAAA8D
:1042A000AAAAAAAAAAFFAAAAAAAAAAAABEAF2080B4
:1042B000208020000000000180006000F8FF07005F
:1042C0000000FCFF844084208400FE41828E833005
:1042D000824080F8000080208020881088088804B0
:1042E00088028801FFFF88018802880488088810F6
:1042F00080208020000010041003D000FFFF9000F9
:104300005041204450584C41434E4C605058204737
:1043100040404040000010046004027E8C01008098
:10432000FE470230F20F0210FE270000F84700801F
:10433000FF7F00000000424062C452444A44C67FEE
:10434000422452246224C2200000F80F0040008062
:10435000FF7F0000000002000200020002000200D5
:104360000200020002000200FE03400CA010102117
:10437000084200F0000010041003D000FFFF90007E
:1043800010830060FE1F020002000200FE3F00409A
:10439000004000780000000008204810880C080346
:1043A000C80438180000900010431080FF7F1000F0
:1043B00010001000000040907C8E40407F4F48204D
:1043C000481E4080F24F12201A18D60712101220F1
:1043D000F24F0280000000000000F00F10041004F3
:1043E00010041004FFFF1004100410041004F00F58
:1043F000000000000000000008204810880C08039E
:10440000C80438180000900010431080FF7F10008F
:1044100010001000000040907C8E40407F4F4820EC
:10442000481E4080F24F12201A18D6071210122090
:10443000F24F0280000010000C81048124412431DD
:10444000240F250126012401247F24812481048155
:1044500014F10C00000000800060F81F8800881034
:104460008820881F08800840FF21081609180A269E
:10447000C84108F80000082008100848084688418C
:1044800078410F410841087F08410841084108412F
:10449000084008400000400040804240CC3F0040BF
:1044A00000804A8132BD22A12AA1F1BF21A131A100
:1044B0002DBD0081000000880066FC010400D4636B
:1044C000548254825492D4AB04847F8284C1C50246
:1044D000362404CF0000004000400040004000406F
:1044E0000040FF7F4040404040404040404040400E
:1044F000004000400000100410441082FF7F1001B3
:1045000050002000F8FF4F2248224922FA3F48225B
:10451000482208200000400040404220CC1F0020DC
:1045200080408850884CFF4388408840FF5F884027
:10453000884080400000000210018800C4FF330062
:1045400000004000420042404280C27F42004200E0
:10455000420040000000000008204810880C0803BA
:10456000C80438180000900010431080FF7F10002E
:1045700010001000000040907C8E40407F4F48208B
:10458000481E4080F24F12201A18D607121012202F
:10459000F24F0280000008200810084808468841B1
:1045A00078410F410841087F08410841084108410E
:1045B000084008400000400040804240CC3F00409E
:1045C00000804A8132BD22A12AA1F1BF21A131A1DF
:1045D0002DBD0081000000880066FC010400D4634A
:1045E000548254825492D4AB04847F8284C1C50225
:1045F000362404CF00000200020002000200020084
:104600000200FEFF020002004200820002010206D8
:10461000020002000000100210421081FF7F900093
:10462000404010409041105E114016401070104EF6
:10463000D0411040000010000C810481244124313D
:10464000240F250126012401247F24812481048153
:1046500014F10C00000000800060F81F8800881032
:104660008820881F08800840FF21081609180A269C
:10467000C84108F80000000008204810880C080312
:10468000C80438180000900010431080FF7F10000D
:1046900010001000000040907C8E40407F4F48206A
:1046A000481E4080F24F12201A18D607121012200E
:1046B000F24F0280000040004200CC7F002000103A
:1046C000440054FF541554157F1554555495547F88
:1046D00044004000000010041003D000FFFF9000D1
:1046E0005041204450584C41434E4C605058204754
:1046F000404040400000404044402440A45F944A71
:104700008C4A844AFF4A844A8C4A944AA45F2440D3
:10471000444040400000020002000200020002008B
:104720000200020002000200FE03400CA010102153
:10473000084200F0000010041003D000FFFF9000BA
:1047400010830060FE1F020002000200FE3F0040D6
:104750000040007800000081004100217F1D4921B8
:104760004941498149FF4989498949897F890089A6
:1047700000810081000000010201820082FC4244AD
:1047800022441244FA4506442244224442FC420098
:104790008200000100008000828082408230FE0F93
:1047A00082008200820082008200FEFF820082007E
:1047B00082008000000010041003D000FFFF900072
:1047C00010830060FE1F020002000200FE3F004056
:1047D0000040007800000000000000580038000091
:1047E00000000000000000000000000000000000C9
:1047F00000000000000008000820C8674824482482
:104800004814C89708900840FF2108160818092680
:10481000CA4108F80000400040804240CC3F0040C0
:1048200000804A8132BD22A12AA1F1BF21A131A17C
:104830002DBD00810000100210421081FF7F90000A
:10484000204098404842284209420E7E2842484271
:10485000A84218400000800880089EF4929492922A
:1048600092929EF1E00080019EF2B292D2949294D4
:104870009EF880080000104010401450D457545542
:1048800054555455FC7F525552555255D3571250DA
:10489000104010400000004000200018FC074400B9
:1048A00044FC44444544464444444444444444440D
:1048B0007CFC000000000200020002000200020076
:1048C0000200020002000200FE03400CA0101021B2
:1048D000084200F0000010041003D000FFFF900019
:1048E00010830060FE1F020002000200FE3F004035
:1048F000004000780000400040804240CC3F004033
:1049000000804A8132BD22A12AA1F1BF21A131A19B
:104910002DBD00810000100210421081FF7F900029
:10492000204098404842284209420E7E2842484290
:10493000A84218400000000058490008000000206C
:104940005C00000028010008B44900085C00002059
:104950008C0600004401000800A24A040000000088
:10496000000000000102030406070809000000001F
:104970000000000000000000000000000000000037
:104980000000000000000000000000000000000027
:1049900000000100001F2E3D4C5B050000000000E0
:1049A00000000000010203040102030406070809D5
:0449B00002040608EF
:04000005080000ED02
:00000001FF
